{
  "contractName": "BuenosDiasTokenSale",
  "abi": [
    {
      "inputs": [
        {
          "internalType": "address",
          "name": "_token",
          "type": "address"
        }
      ],
      "stateMutability": "nonpayable",
      "type": "constructor"
    },
    {
      "anonymous": false,
      "inputs": [
        {
          "indexed": true,
          "internalType": "address",
          "name": "previousOwner",
          "type": "address"
        },
        {
          "indexed": true,
          "internalType": "address",
          "name": "newOwner",
          "type": "address"
        }
      ],
      "name": "OwnershipTransferred",
      "type": "event"
    },
    {
      "anonymous": false,
      "inputs": [
        {
          "indexed": false,
          "internalType": "address",
          "name": "_buyer",
          "type": "address"
        },
        {
          "indexed": false,
          "internalType": "uint256",
          "name": "_amount",
          "type": "uint256"
        }
      ],
      "name": "Sell",
      "type": "event"
    },
    {
      "inputs": [],
      "name": "owner",
      "outputs": [
        {
          "internalType": "address",
          "name": "",
          "type": "address"
        }
      ],
      "stateMutability": "view",
      "type": "function",
      "constant": true
    },
    {
      "inputs": [],
      "name": "renounceOwnership",
      "outputs": [],
      "stateMutability": "nonpayable",
      "type": "function"
    },
    {
      "inputs": [
        {
          "internalType": "address",
          "name": "newOwner",
          "type": "address"
        }
      ],
      "name": "transferOwnership",
      "outputs": [],
      "stateMutability": "nonpayable",
      "type": "function"
    },
    {
      "inputs": [
        {
          "internalType": "uint256",
          "name": "tokens",
          "type": "uint256"
        }
      ],
      "name": "buy",
      "outputs": [],
      "stateMutability": "payable",
      "type": "function",
      "payable": true
    },
    {
      "inputs": [],
      "name": "__tokens",
      "outputs": [
        {
          "internalType": "uint256",
          "name": "",
          "type": "uint256"
        }
      ],
      "stateMutability": "view",
      "type": "function",
      "constant": true
    },
    {
      "inputs": [],
      "name": "__tokenPrice",
      "outputs": [
        {
          "internalType": "uint256",
          "name": "",
          "type": "uint256"
        }
      ],
      "stateMutability": "view",
      "type": "function",
      "constant": true
    },
    {
      "inputs": [],
      "name": "endSale",
      "outputs": [],
      "stateMutability": "nonpayable",
      "type": "function"
    },
    {
      "inputs": [],
      "name": "tokensSold",
      "outputs": [
        {
          "internalType": "uint256",
          "name": "",
          "type": "uint256"
        }
      ],
      "stateMutability": "view",
      "type": "function",
      "constant": true
    },
    {
      "inputs": [],
      "name": "totalTokens",
      "outputs": [
        {
          "internalType": "uint256",
          "name": "",
          "type": "uint256"
        }
      ],
      "stateMutability": "view",
      "type": "function",
      "constant": true
    },
    {
      "inputs": [],
      "name": "__phases",
      "outputs": [
        {
          "components": [
            {
              "internalType": "uint256",
              "name": "total",
              "type": "uint256"
            },
            {
              "internalType": "uint256",
              "name": "price",
              "type": "uint256"
            },
            {
              "internalType": "uint256",
              "name": "phase",
              "type": "uint256"
            }
          ],
          "internalType": "struct BuenosDiasTokenSale.Phase[]",
          "name": "",
          "type": "tuple[]"
        }
      ],
      "stateMutability": "view",
      "type": "function",
      "constant": true
    },
    {
      "inputs": [],
      "name": "currentPhase",
      "outputs": [
        {
          "components": [
            {
              "internalType": "uint256",
              "name": "total",
              "type": "uint256"
            },
            {
              "internalType": "uint256",
              "name": "price",
              "type": "uint256"
            },
            {
              "internalType": "uint256",
              "name": "phase",
              "type": "uint256"
            }
          ],
          "internalType": "struct BuenosDiasTokenSale.Phase",
          "name": "",
          "type": "tuple"
        }
      ],
      "stateMutability": "view",
      "type": "function",
      "constant": true
    },
    {
      "inputs": [],
      "name": "isOwner",
      "outputs": [
        {
          "internalType": "bool",
          "name": "",
          "type": "bool"
        }
      ],
      "stateMutability": "view",
      "type": "function",
      "constant": true
    },
    {
      "inputs": [
        {
          "internalType": "uint256",
          "name": "phase_id",
          "type": "uint256"
        }
      ],
      "name": "phase",
      "outputs": [
        {
          "components": [
            {
              "internalType": "uint256",
              "name": "total",
              "type": "uint256"
            },
            {
              "internalType": "uint256",
              "name": "price",
              "type": "uint256"
            },
            {
              "internalType": "uint256",
              "name": "phase",
              "type": "uint256"
            }
          ],
          "internalType": "struct BuenosDiasTokenSale.Phase",
          "name": "",
          "type": "tuple"
        }
      ],
      "stateMutability": "view",
      "type": "function",
      "constant": true
    }
  ],
  "bytecode": "0x60806040526000600460006101000a81548173ffffffffffffffffffffffffffffffffffffffff021916908373ffffffffffffffffffffffffffffffffffffffff1602179055503480156200005357600080fd5b5060405162001aac38038062001aac8339818101604052810190620000799190620002b8565b620000996200008d620001b660201b60201c565b620001be60201b60201c565b80600560006101000a81548173ffffffffffffffffffffffffffffffffffffffff021916908373ffffffffffffffffffffffffffffffffffffffff16021790555065048c27395000600181905550600060068190555060006002819055506200010b6207a1206200028260201b60201c565b6003819055506000600190505b600a8111620001ae576007604051806060016040528061c350815260200160015484620001469190620002e4565b815260200183815250908060018154018082558091505060019003906000526020600020906003020160009091909190915060008201518160000155602082015181600101556040820151816002015550508080620001a59062000383565b91505062000118565b50506200041a565b600033905090565b60008060009054906101000a900473ffffffffffffffffffffffffffffffffffffffff169050816000806101000a81548173ffffffffffffffffffffffffffffffffffffffff021916908373ffffffffffffffffffffffffffffffffffffffff1602179055508173ffffffffffffffffffffffffffffffffffffffff168173ffffffffffffffffffffffffffffffffffffffff167f8be0079c531659141344cd1fd0a4f28419497f9722a3daafe3b4186f6b6457e060405160405180910390a35050565b6000670de0b6b3a7640000826200029a9190620002e4565b9050919050565b600081519050620002b28162000400565b92915050565b600060208284031215620002cb57600080fd5b6000620002db84828501620002a1565b91505092915050565b6000620002f18262000379565b9150620002fe8362000379565b9250817fffffffffffffffffffffffffffffffffffffffffffffffffffffffffffffffff04831182151516156200033a5762000339620003d1565b5b828202905092915050565b6000620003528262000359565b9050919050565b600073ffffffffffffffffffffffffffffffffffffffff82169050919050565b6000819050919050565b6000620003908262000379565b91507fffffffffffffffffffffffffffffffffffffffffffffffffffffffffffffffff821415620003c657620003c5620003d1565b5b600182019050919050565b7f4e487b7100000000000000000000000000000000000000000000000000000000600052601160045260246000fd5b6200040b8162000345565b81146200041757600080fd5b50565b611682806200042a6000396000f3fe6080604052600436106100c25760003560e01c80637e1c0c091161007f5780639dedf2e6116100595780639dedf2e614610234578063d96a094a1461025f578063e05091511461027b578063f2fde38b146102a6576100c2565b80637e1c0c09146101b35780638da5cb5b146101de5780638f32d59b14610209576100c2565b8063055ad42e146100c7578063135f8aa7146100f2578063380d831b1461012f578063518ab2a81461014657806361fd6b7214610171578063715018a61461019c575b600080fd5b3480156100d357600080fd5b506100dc6102cf565b6040516100e99190611205565b60405180910390f35b3480156100fe57600080fd5b5061011960048036038101906101149190610df6565b6102e7565b6040516101269190611205565b60405180910390f35b34801561013b57600080fd5b50610144610367565b005b34801561015257600080fd5b5061015b610528565b6040516101689190611220565b60405180910390f35b34801561017d57600080fd5b50610186610532565b6040516101939190611128565b60405180910390f35b3480156101a857600080fd5b506101b16105af565b005b3480156101bf57600080fd5b506101c86105c3565b6040516101d59190611220565b60405180910390f35b3480156101ea57600080fd5b506101f3610674565b60405161020091906110e4565b60405180910390f35b34801561021557600080fd5b5061021e61069d565b60405161022b919061114a565b60405180910390f35b34801561024057600080fd5b506102496106e1565b6040516102569190611220565b60405180910390f35b61027960048036038101906102749190610df6565b6106eb565b005b34801561028757600080fd5b50610290610a5f565b60405161029d9190611220565b60405180910390f35b3480156102b257600080fd5b506102cd60048036038101906102c89190610da4565b610b22565b005b6102d7610d2f565b6102e26006546102e7565b905090565b6102ef610d2f565b60078281548110610329577f4e487b7100000000000000000000000000000000000000000000000000000000600052603260045260246000fd5b906000526020600020906003020160405180606001604052908160008201548152602001600182015481526020016002820154815250509050919050565b61036f610ba6565b600560009054906101000a900473ffffffffffffffffffffffffffffffffffffffff1673ffffffffffffffffffffffffffffffffffffffff1663a9059cbb6103b5610674565b600560009054906101000a900473ffffffffffffffffffffffffffffffffffffffff1673ffffffffffffffffffffffffffffffffffffffff166370a08231306040518263ffffffff1660e01b815260040161041091906110e4565b60206040518083038186803b15801561042857600080fd5b505afa15801561043c573d6000803e3d6000fd5b505050506040513d601f19601f820116820180604052508101906104609190610e1f565b6040518363ffffffff1660e01b815260040161047d9291906110ff565b602060405180830381600087803b15801561049757600080fd5b505af11580156104ab573d6000803e3d6000fd5b505050506040513d601f19601f820116820180604052508101906104cf9190610dcd565b6104d857600080fd5b6104e0610674565b73ffffffffffffffffffffffffffffffffffffffff166108fc479081150290604051600060405180830381858888f19350505050158015610525573d6000803e3d6000fd5b50565b6000600254905090565b60606007805480602002602001604051908101604052809291908181526020016000905b828210156105a65783829060005260206000209060030201604051806060016040529081600082015481526020016001820154815260200160028201548152505081526020019060010190610556565b50505050905090565b6105b7610ba6565b6105c16000610c24565b565b600061066f600560009054906101000a900473ffffffffffffffffffffffffffffffffffffffff1673ffffffffffffffffffffffffffffffffffffffff166318160ddd6040518163ffffffff1660e01b815260040160206040518083038186803b15801561063057600080fd5b505afa158015610644573d6000803e3d6000fd5b505050506040513d601f19601f820116820180604052508101906106689190610e1f565b6012610ce8565b905090565b60008060009054906101000a900473ffffffffffffffffffffffffffffffffffffffff16905090565b60006106a7610674565b73ffffffffffffffffffffffffffffffffffffffff166106c5610d0a565b73ffffffffffffffffffffffffffffffffffffffff1614905090565b6000600154905090565b806106f76006546102e7565b602001513461070691906112db565b14610746576040517f08c379a000000000000000000000000000000000000000000000000000000000815260040161073d906111e5565b60405180910390fd5b61074f81610d12565b61075a6006546102e7565b60000151111561079f576040517f08c379a000000000000000000000000000000000000000000000000000000000815260040161079690611185565b60405180910390fd5b6107a881610d12565b600560009054906101000a900473ffffffffffffffffffffffffffffffffffffffff1673ffffffffffffffffffffffffffffffffffffffff166370a08231306040518263ffffffff1660e01b815260040161080391906110e4565b60206040518083038186803b15801561081b57600080fd5b505afa15801561082f573d6000803e3d6000fd5b505050506040513d601f19601f820116820180604052508101906108539190610e1f565b1015610894576040517f08c379a000000000000000000000000000000000000000000000000000000000815260040161088b906111c5565b60405180910390fd5b600560009054906101000a900473ffffffffffffffffffffffffffffffffffffffff1673ffffffffffffffffffffffffffffffffffffffff1663a9059cbb6108da610d0a565b6108e384610d12565b6040518363ffffffff1660e01b81526004016109009291906110ff565b602060405180830381600087803b15801561091a57600080fd5b505af115801561092e573d6000803e3d6000fd5b505050506040513d601f19601f820116820180604052508101906109529190610dcd565b61095b57600080fd5b806002600082825461096d9190611285565b92505081905550806007600654815481106109b1577f4e487b7100000000000000000000000000000000000000000000000000000000600052603260045260246000fd5b906000526020600020906003020160000160008282546109d191906114d7565b9250508190555060006109e56006546102e7565b6000015111610a075760066000815480929190610a0190611553565b91905055505b610a126006546102e7565b602001516001819055507f5e5e995ce3133561afceaa51a9a154d5db228cd7525d34df5185582c18d3df09610a45610d0a565b82604051610a549291906110ff565b60405180910390a150565b6000610b1d600560009054906101000a900473ffffffffffffffffffffffffffffffffffffffff1673ffffffffffffffffffffffffffffffffffffffff166370a08231610aaa610d0a565b6040518263ffffffff1660e01b8152600401610ac691906110e4565b60206040518083038186803b158015610ade57600080fd5b505afa158015610af2573d6000803e3d6000fd5b505050506040513d601f19601f82011682018060405250810190610b169190610e1f565b6012610ce8565b905090565b610b2a610ba6565b600073ffffffffffffffffffffffffffffffffffffffff168173ffffffffffffffffffffffffffffffffffffffff161415610b9a576040517f08c379a0000000000000000000000000000000000000000000000000000000008152600401610b9190611165565b60405180910390fd5b610ba381610c24565b50565b610bae610d0a565b73ffffffffffffffffffffffffffffffffffffffff16610bcc610674565b73ffffffffffffffffffffffffffffffffffffffff1614610c22576040517f08c379a0000000000000000000000000000000000000000000000000000000008152600401610c19906111a5565b60405180910390fd5b565b60008060009054906101000a900473ffffffffffffffffffffffffffffffffffffffff169050816000806101000a81548173ffffffffffffffffffffffffffffffffffffffff021916908373ffffffffffffffffffffffffffffffffffffffff1602179055508173ffffffffffffffffffffffffffffffffffffffff168173ffffffffffffffffffffffffffffffffffffffff167f8be0079c531659141344cd1fd0a4f28419497f9722a3daafe3b4186f6b6457e060405160405180910390a35050565b600081600a610cf7919061135f565b83610d0291906112db565b905092915050565b600033905090565b6000670de0b6b3a764000082610d28919061147d565b9050919050565b60405180606001604052806000815260200160008152602001600081525090565b600081359050610d5f81611607565b92915050565b600081519050610d748161161e565b92915050565b600081359050610d8981611635565b92915050565b600081519050610d9e81611635565b92915050565b600060208284031215610db657600080fd5b6000610dc484828501610d50565b91505092915050565b600060208284031215610ddf57600080fd5b6000610ded84828501610d65565b91505092915050565b600060208284031215610e0857600080fd5b6000610e1684828501610d7a565b91505092915050565b600060208284031215610e3157600080fd5b6000610e3f84828501610d8f565b91505092915050565b6000610e548383611042565b60608301905092915050565b610e698161150b565b82525050565b6000610e7a8261124b565b610e848185611263565b9350610e8f8361123b565b8060005b83811015610ec0578151610ea78882610e48565b9750610eb283611256565b925050600181019050610e93565b5085935050505092915050565b610ed68161151d565b82525050565b6000610ee9602683611274565b91507f4f776e61626c653a206e6577206f776e657220697320746865207a65726f206160008301527f64647265737300000000000000000000000000000000000000000000000000006020830152604082019050919050565b6000610f4f601183611274565b91507f4572726f72206c6f772062616c616e63650000000000000000000000000000006000830152602082019050919050565b6000610f8f602083611274565b91507f4f776e61626c653a2063616c6c6572206973206e6f7420746865206f776e65726000830152602082019050919050565b6000610fcf600883611274565b91507f536f6c64206f75740000000000000000000000000000000000000000000000006000830152602082019050919050565b600061100f601583611274565b91507f4572726f722076616c7565206e6f74206d6174636800000000000000000000006000830152602082019050919050565b60608201600082015161105860008501826110c6565b50602082015161106b60208501826110c6565b50604082015161107e60408501826110c6565b50505050565b60608201600082015161109a60008501826110c6565b5060208201516110ad60208501826110c6565b5060408201516110c060408501826110c6565b50505050565b6110cf81611549565b82525050565b6110de81611549565b82525050565b60006020820190506110f96000830184610e60565b92915050565b60006040820190506111146000830185610e60565b61112160208301846110d5565b9392505050565b600060208201905081810360008301526111428184610e6f565b905092915050565b600060208201905061115f6000830184610ecd565b92915050565b6000602082019050818103600083015261117e81610edc565b9050919050565b6000602082019050818103600083015261119e81610f42565b9050919050565b600060208201905081810360008301526111be81610f82565b9050919050565b600060208201905081810360008301526111de81610fc2565b9050919050565b600060208201905081810360008301526111fe81611002565b9050919050565b600060608201905061121a6000830184611084565b92915050565b600060208201905061123560008301846110d5565b92915050565b6000819050602082019050919050565b600081519050919050565b6000602082019050919050565b600082825260208201905092915050565b600082825260208201905092915050565b600061129082611549565b915061129b83611549565b9250827fffffffffffffffffffffffffffffffffffffffffffffffffffffffffffffffff038211156112d0576112cf61159c565b5b828201905092915050565b60006112e682611549565b91506112f183611549565b925082611301576113006115cb565b5b828204905092915050565b6000808291508390505b6001851115611356578086048111156113325761133161159c565b5b60018516156113415780820291505b808102905061134f856115fa565b9450611316565b94509492505050565b600061136a82611549565b915061137583611549565b92506113a27fffffffffffffffffffffffffffffffffffffffffffffffffffffffffffffffff84846113aa565b905092915050565b6000826113ba5760019050611476565b816113c85760009050611476565b81600181146113de57600281146113e857611417565b6001915050611476565b60ff8411156113fa576113f961159c565b5b8360020a9150848211156114115761141061159c565b5b50611476565b5060208310610133831016604e8410600b841016171561144c5782820a9050838111156114475761144661159c565b5b611476565b611459848484600161130c565b925090508184048111156114705761146f61159c565b5b81810290505b9392505050565b600061148882611549565b915061149383611549565b9250817fffffffffffffffffffffffffffffffffffffffffffffffffffffffffffffffff04831182151516156114cc576114cb61159c565b5b828202905092915050565b60006114e282611549565b91506114ed83611549565b925082821015611500576114ff61159c565b5b828203905092915050565b600061151682611529565b9050919050565b60008115159050919050565b600073ffffffffffffffffffffffffffffffffffffffff82169050919050565b6000819050919050565b600061155e82611549565b91507fffffffffffffffffffffffffffffffffffffffffffffffffffffffffffffffff8214156115915761159061159c565b5b600182019050919050565b7f4e487b7100000000000000000000000000000000000000000000000000000000600052601160045260246000fd5b7f4e487b7100000000000000000000000000000000000000000000000000000000600052601260045260246000fd5b60008160011c9050919050565b6116108161150b565b811461161b57600080fd5b50565b6116278161151d565b811461163257600080fd5b50565b61163e81611549565b811461164957600080fd5b5056fea2646970667358221220cf31ad82ea64e9e32723f9acaed73232800d36e0aa99ca48d0267cf5d4be863b64736f6c63430008000033",
  "immutableReferences": {},
  "source": "// SPDX-License-Identifier: MIT\npragma solidity ^0.8.0;\n\nimport \"./Address.sol\";\nimport \"@openzeppelin/contracts/token/ERC20/IERC20.sol\";\nimport \"@openzeppelin/contracts/utils/math/SafeMath.sol\";\nimport \"@openzeppelin/contracts/access/Ownable.sol\";\n\n\ncontract BuenosDiasTokenSale is Ownable {\n\n    using Address for address;\n    using SafeMath for uint;\n    using SafeMath for uint256;\n\n    uint private buyPrice;\n    uint private sold;\n    uint private toSold;\n    address private noOne = address(0);\n    IERC20 private token;\n    uint private currentPhaseIndex;\n\n    struct Phase {\n        uint total;\n        uint price;\n        uint phase;\n    }\n\n    Phase [] private phases;\n\n    event Sell(address _buyer, uint _amount);\n\n    constructor(address _token) {\n        token = IERC20(_token);\n        buyPrice = 0.000005 * 10**18;\n        currentPhaseIndex = 0;\n        sold = 0;\n        toSold = __amount(500000);\n\n        for(uint i=1; i<=10; i++){\n            phases.push(Phase(50000, i*buyPrice, i));\n        }\n    }\n\n    function buy(uint tokens) external payable {\n        require(msg.value / phase(currentPhaseIndex).price == tokens, 'Error value not match');\n        require(phase(currentPhaseIndex).total <= __amount(tokens), 'Error low balance');\n        require(token.balanceOf(address(this)) >= __amount(tokens), 'Sold out');\n        require(token.transfer(_msgSender(), __amount(tokens)));\n\n        sold += tokens;\n        phases[currentPhaseIndex].total -= tokens;\n        if(phase(currentPhaseIndex).total <= 0)\n            currentPhaseIndex++;\n\n        buyPrice = phase(currentPhaseIndex).price;\n\n        emit Sell(_msgSender(), tokens);\n    }\n\n    function __unAmount(uint256 _amount, uint decimals) private pure returns(uint){\n        return _amount / (10**decimals);\n    }\n\n    function __tokens() external view returns(uint){\n        return __unAmount(token.balanceOf(_msgSender()), 18);\n    }\n\n    function __tokenPrice() external view returns(uint){\n        return buyPrice;\n    }\n\n    function endSale() external onlyOwner {\n        require(token.transfer(owner(), token.balanceOf(address(this))));\n        payable(owner()).transfer(address(this).balance);\n    }\n\n    function tokensSold() external view returns(uint){\n        return sold;\n    }\n\n    function totalTokens() external view returns(uint){\n        return __unAmount(token.totalSupply(), 18);\n    }\n\n    function __phases() external view returns(Phase [] memory) {\n        return phases;\n    }\n\n    function currentPhase() external view returns(Phase memory){\n        return phase(currentPhaseIndex);\n    }\n\n    function isOwner() external view returns(bool){\n        return _msgSender() == owner();\n    }\n\n    function phase(uint phase_id) public view returns(Phase memory){\n        return phases[phase_id];\n    }\n\n    function __amount(uint _amount) private pure returns(uint){\n        return _amount * (10 ** 18);\n    }\n}\n\n",
  "sourcePath": "/home/ngr/Escritorio/BuenosDias/walladapp/contracts/BuenosDiasTokenSale.sol",
  "compiler": {
    "name": "solc",
    "version": "0.8.0+commit.c7dfd78e.Emscripten.clang"
  },
  "schemaVersion": "3.4.10",
  "updatedAt": "2022-10-12T21:56:21.343Z",
  "networkType": "ethereum",
  "devdoc": {
    "kind": "dev",
    "methods": {
      "owner()": {
        "details": "Returns the address of the current owner."
      },
      "renounceOwnership()": {
        "details": "Leaves the contract without owner. It will not be possible to call `onlyOwner` functions anymore. Can only be called by the current owner. NOTE: Renouncing ownership will leave the contract without an owner, thereby removing any functionality that is only available to the owner."
      },
      "transferOwnership(address)": {
        "details": "Transfers ownership of the contract to a new account (`newOwner`). Can only be called by the current owner."
      }
    },
    "version": 1
  },
  "userdoc": {
    "kind": "user",
    "methods": {},
    "version": 1
  }
}